:100000000C942A000C9447000C9447000C94470071
:100010000C9447000C9447000C9447000C94470044
:100020000C9447000C9447000C9447000C94470034
:100030000C9447000C9447000C9447000C94470024
:100040000C9447000C9447000C9447000C94470014
:100050000C94470011241FBECFE5D8E0DEBFCDBF12
:1000600011E0A0E6B0E0E2ECF3E102C005900D92F1
:10007000AE3BB107D9F721E0AEEBB1E001C01D9274
:10008000A43CB207E1F70E940E050C94DF090C9422
:1000900000008195882359F13091610093EF930F0F
:1000A000953C08F061E0282F2603C0011124830F3E
:1000B000911D8D3D910514F08CED90E082309105FD
:1000C00014F482E090E0282F831789F08093610078
:1000D00030E0A8EEB3E00E94BE0924EB30E040E03F
:1000E00050E00E947D0928513C4F39BD28BD08953C
:1000F0005D9BFECF8CB90895CF93DF93EC0189917E
:10010000811103C0DF91CF9108950E947800F7CF4D
:10011000811104C082E690E00C947C008EE690E0B1
:100120006134D1F381E990E0F7CF84EA86BF80EDB6
:1001300097E006B607FE08C091B1987F81E098303D
:1001400039F0903119F40895019799F780E0FBCFC9
:10015000089584E986BF80ED97E006B604FE02C0EC
:100160000197D9F7089583B984E886BF80ED97E0B9
:1001700006B607FE0AC091B1987F81E0983149F038
:10018000983241F0903419F40895019789F780E08E
:10019000FBCF08950895AA98A29A0895A298AA9AC2
:1001A0000895AB98A39A0895A398AB9A089597B130
:1001B000907E892B87B982E08A95F1F700C0369A44
:1001C0003699FECF84B195B10895CF92DF92EF9228
:1001D000FF92CF93DF93D82F0E94D700C0E1C12CAC
:1001E000D12C76018D2F0E94D700C80ED91EE11C9C
:1001F000F11CC150B9F7D701C60124E0B695A79507
:10020000979587952A95D1F7DF91CF91FF90EF9041
:10021000DF90CF9008958A9A929880EA8A95F1F7B4
:100220008A9897E19A95F1F7000080B398E89A953B
:10023000F1F700C082FB882780F991E089270895B3
:1002400098E08A9A929880FF0CC022E02A95F1F7F4
:100250008A9825E12A95F1F700008695915089F753
:10026000089524E12A95F1F78A9823E02A95F1F779
:10027000F3CF98E080E086958A9A929822E02A95BA
:10028000F1F78A9833E03A95F1F720B332E13A95E5
:10029000F1F7000022FD8068915069F708950E94EF
:1002A000CE0084EF91E09A9B02C081E008950000A7
:1002B0000197C9F780E008950E94CB000E94D10009
:1002C00083E08A95F1F700000E944F0183E08A9550
:1002D000F1F700000E94D40083E08A95F1F7000056
:1002E0000895FF920F931F93CF93DF93F82E8B0106
:1002F0000E94D400D8E0C0E083E08A95F1F70000C6
:100300000E944F01811109C00E94CB0080E0DF9163
:10031000CF911F910F91FF900895E3E0EA95F1F7D7
:10032000000083B383FB882780F9CC0FC82B0E9481
:10033000CB00F3E0FA95F1F70000D150E9F6FF2089
:10034000D1F00E94D10083E08A95F1F700000E946D
:100350004F018823C9F2E3E0EA95F1F700000E941B
:10036000CB00F3E0FA95F1F700000E94D400F80109
:10037000C08381E0CCCF0E94D400E5CF30916000F3
:1003800093EF930F953C08F061E0282F2603C001FE
:100390001124830F911D8D3D910514F08CED90E09B
:1003A0008230910514F482E090E0282F831789F0C1
:1003B0008093600030E0A8EEB3E00E94BE0924EB19
:1003C00030E040E050E00E947D0928513C4F3BBDA9
:1003D0002ABD08958F929F92AF92BF92EF92FF92A3
:1003E0001F93CF93DF93CDB7DEB72B970FB6F8945B
:1003F000DEBF0FBECDBFE12C2AE0822E912CA12CB6
:10040000B12C611571058105910591F480E32B965E
:100410000FB6F894DEBF0FBECDBFDF91CF911F9115
:10042000FF90EF90BF90AF909F908F900C947800CA
:1004300011E01E0D21E030E02C0F3D1F2E0D311D6F
:100440007901A50194010E947D09605DF701608337
:10045000B901CA01E12E611571058105910541F7C8
:10046000111110C02B960FB6F894DEBF0FBECDBF92
:10047000DF91CF911F91FF90EF90BF90AF909F9031
:100480008F9008951150E1E0F0E0EC0FFD1FE10FB7
:10049000F11D80810E947800E3CF4F925F926F92AE
:1004A0007F928F929F92AF92BF92CF92DF92EF9204
:1004B000FF920F931F93CF93DF9300D000D000D013
:1004C000CDB7DEB79E838D8328013901CB01BA01F8
:1004D00020E432E44FE050E00E947D0929833A8312
:1004E0004B835C834B015C018D819E810E947C006B
:1004F00082EA90E00E947C0069817A818B819C81F4
:100500000E94EA018EE20E94780080EA881686E85E
:10051000980681E0A806B10448F580E30E947800BF
:1005200080E1881687E29806A104B104F8F480E31C
:100530000E94780088EE881683E09806A104B10432
:10054000A8F480E30E94780084E688169104A10450
:10055000B10460F480E30E9478008AE08816910478
:10056000A104B10418F480E30E947800C501B4012D
:100570000E94EA018DEA90E00E947C00C301B20172
:1005800028EE33E040E050E00E947D0929013A0165
:100590004B015C018D819E810E947C0082EB90E08A
:1005A0000E947C00C301B2010E94EA018EE20E9417
:1005B000780084E688169104A104B10460F480E315
:1005C0000E9478008AE088169104A104B10418F40E
:1005D00080E30E947800C501B4010E94EA018DEB1E
:1005E00090E00E947C00C701B60128EE33E040E0B5
:1005F00050E00E947D0949015A016B017C018D8107
:100600009E810E947C0083EC90E00E947C00C501EA
:10061000B4010E94EA018EE20E94780084E6C816C6
:10062000D104E104F10460F480E30E9478008AE0E0
:10063000C816D104E104F10418F480E30E947800A4
:10064000C701B6010E94EA018CEC90E026960FB635
:10065000F894DEBF0FBECDBFDF91CF911F910F91F8
:10066000FF90EF90DF90CF90BF90AF909F908F90D2
:100670007F906F905F904F900C947C000E94D4000C
:1006800083E08A95F1F700000E944F01882389F0EA
:1006900083E08A95F1F700000E94D10083E08A95FB
:1006A000F1F700000E94CB0083E08A95F1F700008B
:1006B00081E00895CF93DF93D82FC8E0D7FF11C012
:1006C0000E94D40083E08A95F1F700000E944F0158
:1006D00081110AC00E94CB00C0E08C2FDF91CF9126
:1006E00008950E94D100EECF83E08A95F1F70000D3
:1006F0000E94CB0083E08A95F1F70000DD0FC15026
:10070000E9F60E94D40083E08A95F1F700000E9488
:100710004F018823F9F283E08A95F1F70000C3B313
:10072000C3FBCC27C0F981E0C8270E94CB0083E03F
:100730008A95F1F70000D1CFEF92FF921F93CF93EC
:10074000DF9300D0CDB7DEB7162F7A011A82198257
:10075000892B09F046C00E94950081110BC00E94B0
:10076000A90080E00F900F90DF91CF911F91FF9033
:10077000EF90089580E80E94B300882381F3812FD1
:100780000E94B300882359F30E949500882339F30F
:1007900081E80E94B300882311F384EC86BF80EDCA
:1007A00097E006B607FE17C083B18A8384E886BF48
:1007B00080ED97E006B607FE11C083B189830E94E1
:1007C000A9008A819981892798278927F701918330
:1007D000808381E0C7CF019721F7C1CF019751F7FF
:1007E000BECF0E943E03811103C00E945C01B9CFBD
:1007F00080E80E945A038823C1F3812F0E945A0384
:10080000882399F30E945C0183E08A95F1F7000048
:100810000E943E03882349F381E80E945A038823FB
:1008200021F3BE016E5F7F4F81E00E94710188233A
:10083000E1F2BE016F5F7F4F80E00E94710188236B
:10084000A1F20E945C01BDCF4F925F926F927F92A6
:100850008F929F92AF92BF92CF92DF92EF92FF92D0
:100860000F931F93CF93DF9300D000D0CDB7DEB7A7
:100870007C014B015A0189011C821B821A82198258
:10088000AE014D5F5F4F62E00E949C03811116C074
:1008900080E00F900F900F900F90DF91CF911F91FC
:1008A0000F91FF90EF90DF90CF90BF90AF909F900F
:1008B0008F907F906F905F904F900895AE014F5F43
:1008C0005F4F61E0C7010E949C03882309F3AB815D
:1008D000BC8183E0B595A7958A95E1F720EA3FE0D2
:1008E0000E94CD092B013C0177FE03C0412C512C05
:1008F0003201A981BA8124E630E00E94CD096B0162
:100900007C01F7FE03C0C12CD12C7601F40140829A
:10091000518262827382F501C082D182E282F382C7
:10092000C301B20128EE33E040E050E00E949F098D
:1009300049015A01C701B60124E630E040E050E029
:100940000E949F09CA01B901A50194010E94590999
:100950002AE030E040E050E00E949F09F801208347
:1009600031834283538381E094CF1F93CF93DF93EE
:10097000182FEB010E949500811107C00E94A90069
:1009800080E0DF91CF911F91089580E80E94B3002D
:100990008823A1F3812F0E94B300882379F38D2F40
:1009A0000E94B300882351F38C2F0E94B300882348
:1009B00029F30E94A90081E0E4CF1F93CF93DF9336
:1009C000162F892B39F4BA01812FDF91CF911F9116
:1009D0000C94B504EA010E943E03811107C00E94F5
:1009E0005C0180E0DF91CF911F91089580E80E9423
:1009F0005A038823A1F3812F0E945A03882379F395
:100A00008D2F0E945A03882351F38C2F0E945A0382
:100A1000882329F30E945C0181E0E4CFCF93DF9328
:100A2000CDB7DEB7A0970FB6F894DEBF0FBECDBF2F
:100A300084B7806884BF84B7806884BF84B78068C7
:100A400084BF84BF8AB3807F8ABB8BB3807F8BBB1C
:100A500080E487B983E886B9369A3699FECF84B1A7
:100A600095B181B3806381BB1FBC1EBC1DBC1CBC87
:100A70008FE19EE497BD86BD8CED95E099BD88BD64
:100A80009BBD8ABD82EA8FBD89E18EBD599A10BC9B
:100A90008CE089B988E18AB986E880BDB898C09AA7
:100AA00087E893E10197F1F700C0000084B38C7FE1
:100AB00084BB85B3836085BB11B882E080B984E0D4
:100AC00086BF6FE979E380E00E94B504882329F0AE
:100AD00060E070E185E00E94B50484B7806884BF5F
:100AE00084BF0E94CE000E94D40093E09A95F1F753
:100AF000000019E09B990EC00E94CB00A3E0AA95CC
:100B0000F1F700000E94CE00B3E0BA95F1F70000C3
:100B1000115081F70E945C014FE959E360E081E0E8
:100B200090E00E94DD04882339F040E050E165E068
:100B300081E090E00E94DD040FEF10E722E0015019
:100B400010402040E1F700C0000050E4352E1D8623
:100B50001E861F86188A198A1A8A1B8A1C8A812C6B
:100B6000912C540180E00E94E5007C0181E00E940C
:100B7000E5008C0182E00E94E5002C0183E00E94E8
:100B8000E500FC01C701B0E0A0E0712C612CA701D9
:100B9000BD01440D551D661D771D6A017B01F6944C
:100BA000E794D794C794CD8ADE8AEF8AF88EA8019D
:100BB00070E060E06F01F12CE12C9B010C0D1D1D1C
:100BC0002E1D3F1D36952795179507954C0C5D1CDE
:100BD0006E1C7F1C73016201F694E794D794C7944E
:100BE000C98EDA8EEB8EFC8E6C017D01C40ED51E93
:100BF000E61EF71ED701C601B695A795979587956E
:100C00008D8F9E8FAF8FB8A3ED89FE89E00FF11F06
:100C1000EA30F10508F491C18D899E89AF89B88DBC
:100C2000801B910BA20BB30B9C01AD01A8EEB3E0AE
:100C30000E94D4099F0150E040E00E949F09032ECA
:100C4000000C440B550B820E931EA41EB51EED8D99
:100C5000FE8DA98DBA8DEA0FFB1F30E020E0EA304F
:100C6000F105A8F0298D3A8D4B8D5C8D8D8D9E8D73
:100C7000AF8DB8A1281B390B4A0B5B0BA8EEB3E074
:100C80000E94D4099F0150E040E00E949F09032E7A
:100C9000000C440B550B89899A89AB89BC89820F5A
:100CA000931FA41FB51F898B9A8BAB8BBC8BC40C75
:100CB000D51CE61CF71CB2E0F694E794D794C794D1
:100CC000BA95D1F70D851E852F8538890C0D1D1D10
:100CD0002E1D3F1D0D871E872F87388B83EC99E0D3
:100CE0000197F1F700C000003A9431103BCF003873
:100CF00011412105310508F423C1C501B40120E4E7
:100D000030E040E050E00E949F09233CA1E03A0718
:100D100014F022EC31E02E33BEEF3B0714F42EE347
:100D20003EEF3093C1012093C00169897A898B8994
:100D30009C8920E430E040E050E00E949F09233C81
:100D400001E0300714F022EC31E02E331EEF3107C2
:100D500014F42EE33EEF3093BF012093BE011092B6
:100D6000C3011092C20182ED90E00E947C00212C10
:100D7000312C9FEF198A21E42D87912C5F9B03C0B2
:100D80008CB18111E6C086B3282F209521702D8B60
:100D9000582F5170852E80FD07C08D85813421F438
:100DA0001092C3011092C201AD899A1304C0BD858F
:100DB00080E0B31531F06D858D890E9488003D84F7
:100DC00081E009890F5F098B093108F400C18111A5
:100DD00004C06D858D890E94880019861A861B863D
:100DE0001C861D821E821F82188619821A821B820F
:100DF0001C829E012F5F3F4FAE014B5F5F4FBE01D4
:100E0000675F7F4F90E080E00E942404882309F40C
:100E1000BFC0C980DA80EB80FC800D811E812F81EC
:100E2000388549855A856B857C858AE091E00E94EA
:100E30004D029E012F5F3F4FAE014B5F5F4FBE01E2
:100E4000675F7F4F81E090E00E942404882309F4CB
:100E5000A4C0C980DA80EB80FC800D811E812F81C7
:100E6000388549855A856B857C8581E391E00E94B0
:100E70004D02222009F49AC00E940B01882309F434
:100E800091C08CEC0E9420018EEB0E9420010E94F8
:100E90003901182F0E943901E82E0E940B01FE2C07
:100EA000E12E8701F7FE02C0015F1F4FA4E01595F8
:100EB0000795AA95E1F79701F7FE04C0222733278B
:100EC0002E193F092F70332741E752E0249FC001BC
:100ED000259F900D349F900D112464E670E00E94D0
:100EE00069096B018AE591E00E947C00F7FE8DC0E4
:100EF0008DE20E9478000115110509F07BC080E3A6
:100F00000E9478008EE20E9478005AE0C516D10453
:100F100018F480E30E947800B60190E080E00E941F
:100F2000EA0184E891E00E947C0081E8E81682E012
:100F3000F806E4F189E891E037C030E020E07FCEA8
:100F40001092C1011092C0011092BF011092BE0117
:100F500006CF282F2F7D213439F41092C30110922F
:100F6000C20131E43D870ACF2D3439F41092C30118
:100F70001092C2014DE44D8701CF8D3009F4FECEB1
:100F80008A3009F4FBCE803209F4F8CE982EF6CEE2
:100F900080E191E00E947C004CCF89E391E00E94C7
:100FA0007C0067CF88E691E00E947C000E940B01E4
:100FB000882331F08CEC0E94200184E40E942001FF
:100FC00083EA91E00E947C0022242394198A9D8563
:100FD0009D3489F5892D8F7D8C34E1F46FE081E0BB
:100FE0000E944900AFE0B7E21197F1F700C000009E
:100FF0009D89C3CE66277727601B710B072E000CD7
:10100000880B990B0E94EA017DCFB801110F880B64
:10101000990BF8CF823519F46FE08FEFE1CF85356A
:1010200029F46FE081E00E94BE01DCCF8434D1F668
:101030006FE08FEFF8CF811030C01092C301109293
:10104000C20120916000223070F482E08093600041
:10105000F3EFCF2EF3E0DF2EDBBCCABC8FE097E2CC
:101060000197F1F7C3CF2230C9F38EEF820F85309D
:1010700008F084E0281B2093600030E0A8EEB3E085
:101080000E94BE0924EB30E040E050E00E947D0960
:1010900028513C4F3BBD2ABDE1CF80E00E94E500D6
:1010A0004C0181E00E94E5002C0182E00E94E500F5
:1010B0007C0183E00E94E500A40170E060E087010C
:1010C00030E020E0098F1A8F2B8F3C8F712C612C20
:1010D0008C0130E020E0898C9A8CAB8CBC8C800E2B
:1010E000911EA21EB31E6A017B01C40CD51CE61C16
:1010F000F71CD501C4018C0D9D1DAE1DBF1DE2E086
:10110000B695A79597958795EA95D1F7C79728F44F
:101110001092C3011092C201A1CF898D9A8DAB8D1F
:10112000BC8D480F591F6A1F7B1F76956795579591
:101130004795040D151D261D371D369527951795C6
:101140000795FA01E00FF11FEA30F10508F450C0ED
:10115000DB01CA01801B910BA20BB30B9C01AD01FB
:10116000A8EEB3E00E94D4099F0150E040E00E9445
:101170009F098901B501A401769567955795479513
:10118000D701C601B695A79597958795FA01E80FFF
:10119000F91F30E020E0EA30F10578F09A01AB0168
:1011A000281B390B4A0B5B0BA8EEB3E00E94D40955
:1011B0009F0150E040E00E949F098091C001909102
:1011C000C101A801481B590B8091BE019091BF013C
:1011D000281B390B8091C30181110DC081E04C3374
:1011E000510584F4453C9FEF590714F180E020C07D
:1011F00010E000E0BFCF1816B4F481E04A31510589
:101200000CF480E08093C3019091C20111E0911130
:1012100011C02C333105A4F4253CBFEF3B070CF47F
:1012200046C010E044C081E0473EAFEF5A07F4F6F5
:101230008195E8CF1916B4F52A3131050CF410E088
:101240001093C20157FF03C051954195510964E0C5
:10125000443091E0590748F463E0403A510528F4DE
:1012600062E04A35510508F461E037FF03C031956B
:101270002195310904E02430A1E03A0748F403E065
:10128000203A310528F402E02A35310508F401E05E
:101290000E944900112309F4E1CE602F812F0E94A2
:1012A000BE01DCCE273E0FEF30070CF0BACF119510
:1012B000C7CFDB018F939F930E94D409BF91AF9159
:1012C000A29F800D911DA39F900DB29F900D1124A0
:1012D0000895AA1BBB1B51E107C0AA1FBB1FA6177D
:1012E000B70710F0A61BB70B881F991F5A95A9F7CF
:1012F00080959095BC01CD010895A1E21A2EAA1BFC
:10130000BB1BFD010DC0AA1FBB1FEE1FFF1FA217B5
:10131000B307E407F50720F0A21BB30BE40BF50BB2
:10132000661F771F881F991F1A9469F7609570953B
:10133000809590959B01AC01BD01CF010895052ECC
:1013400097FB1EF400940E94B60957FD07D00E9437
:101350007D0907FC03D04EF40C94B60950954095D6
:10136000309521953F4F4F4F5F4F08959095809551
:10137000709561957F4F8F4F9F4F0895A29FB00149
:10138000B39FC001A39F700D811D1124911DB29FB9
:10139000700D811D1124911D08950E94BE09B7FF93
:1013A0000895821B930B08950E94BE09A59F900D7E
:1013B000B49F900DA49F800D911D11240895F89461
:0213C000FFCF5D
:1013C2005A5A5261696E3A204472790D0A0052618A
:1013D200696E3A2044657465637465643B20547297
:1013E20061636B696E672073746F707065640D0A58
:1013F200005261696E3A2044657465637465640DD8
:101402000A0020566F6C746167653A200020560D01
:101412000A002043757272656E743A2000206D4195
:101422000D0A0020506F7765723A2000206D570D2B
:101432000A00536F6C617220547261636B65722093
:101442004F6E6C696E652E204475616C20494E4169
:10145200323139204D6F6E69746F72696E67205335
:101462007461727465642E0D0A00536F6C617200B0
:10147200494E413231392023313A20436F6D6D7527
:101482006E69636174696F6E204572726F720D0AC4
:10149200004261747465727900494E4132313920DB
:1014A20023323A20436F6D6D756E69636174696FA3
:1014B2006E204572726F720D0A0054656D7065720E
:1014C20061747572653A200054656D70657261745D
:1014D2007572653A2053656E736F72204572726F32
:1014E200720D0A0020430D0A004578636573736923
:1014F20076652068656174206465746563746564EB
:101502000D0A002D2D2D2D2D2D2D2D2D2D2D2D2D79
:0E1512002D2D2D2D2D2D2D2D2D2D2D0D0A00C5
:00000001FF
